:020000040000FA
:2000000000500020850F00007D0F0000650F0000810F0000810F0000810F0000000000002C
:20002000000000000000000000000000810F0000810F000000000000810F0000810F000080
:20004000A93D0000810F000069E50000810F00007D3400001D390000810F0000810F000025
:20006000810F0000C5E50000810F0000810F0000810F0000810F0000810F0000810F0000E6
:20008000810F0000810F0000810F0000810F0000810F0000810F0000810F0000810F0000E0
:2000A000810F0000810F0000810F0000810F0000810F0000810F0000810F0000810F0000C0
:2000C000810F0000C94E0000294B1B689B0702D44FF000407047F0B5452183B0002002F084
:2000E000E9FF0DF10601022201200DF0E9FC38B901A802210DF00EFD4FF0004003B0F0BD48
:200100000DF10601022200200DF0DAFC0028EFD0BDF80640230A43EA0424A4B2200BADF839
:2001200004400FF013FA0EF0C1FD0646C4F30B000F460FF01BFA0CA3D3E9002304460D4611
:20014000304639460FF078FA02460B46204629460FF072FA0FF020FD06490FF07BFE0FF07E
:20016000C9FF03B0F0BD00BF7B14AE47E17A843F080900200000C84208B51F4B1B68032BE3
:200180001BD1431E012B18D81C4A1D4B012812881B8815D018460FF0D9F90022194B0FF029
:2001A0004BFA0022184B0FF047FA0FF0F5FC17490FF050FE0FF09EFF08BD4FF0004008BDF3
:2001C00010460FF0C3F900220E4B0FF035FA08A3D3E900230FF030FA00220D4B0FF078F8C9
:2001E0000FF0DAFC09490FF035FE0FF083FF08BD0000000000A064402C090020E22B00209A
:20020000E42B00200000F03E000059400000C8420000444000000000F8B5614B1B68F3B1DA
:20022000604B002210F0380605461A609A8050D1420714D003F094F85B4C206007E003F006
:200240008FF822686FF009039B1AC34203D502F091F90028F3D0554B1B78DB0703D44FF0FE
:2002600000463046F8BD4F4C6821012002F022FF2146062243200DF023FC0746002861D001
:2002800023786178A078E77822796370637921700021E070A77008466271237102F00AFF60
:2002A000042D5AD0022D5BD0012DDAD1B4F904000FF05CF938A3D3E900230FF0E7FA0FF012
:2002C0006BFC3B490FF0C6FD0FF014FF06463046F8BD03F045F8344C206007E003F040F8A6
:2002E00022686FF009039B1AC34203D502F042F90028F3D02D4B1B78D907B0D5294C6821F1
:20030000012002F0D7FE214606223B200DF0D8FB06460021084602F0CDFEB6B327786678DD
:20032000A078E17822796379202D67702670E070A1706271237116D0102D20D0082D21D01A
:2003400000268EE7204606210DF0E4FB3946384602F0B0FE4FF0004683E7B4F90000A7E7D2
:20036000B4F90200A4E7B4F9000002F02DF810490FF070FD0FF0BEFE06463046F8BDB4F9DB
:200380000200F2E7B4F90400EFE7204606210DF0C1FB64E7AFF30080000000000060604048
:2003A0005C09002034090020202C0020F42B00200000C842000000002DE9F04F23F00048F6
:2003C00058EA020993B03CD0714C21F00046A64283460D460CDD06F1404606F5801656EA32
:2003E0000B0038D183466B49584613B0BDE8F08F9A4696462BD0A045EDDC654CA04578D0A4
:20040000002D0F468146CDE9002376DB0024BEF1000F27D15E4B984500F08B805D4B984589
:2004200052D0BAF1804F00F0C9835B4B9A4519D1002D17DB4846394613B0BDE8F04F0EF0A4
:20044000D5BDCB465846534913B0BDE8F08F0028C1D1B045D1DD514813B0BDE8F04F0EF03D
:2004600095BE0024484639460EF084FEBBF1000F1CD0ED0F013D54EA050370D0484B9845A1
:2004800040F3948003F10473984540F30D84454B9E4270DDBAF1000F70DD3BA3D3E9002388
:2004A000104619460FF0C8F883469DE726B1394B25F040429A42DCD1BAF1000FC0F2B7835A
:2004C000002D08DB83468FE7BAF1000FC0F25E84CB46394688E706F1404606F5801656EA32
:2004E000040300F08384012CECD101F1004183467AE7BEF1000F83D06DE72B4B98452CDCF7
:20050000A3F15473984581DD4FEA2853A3F2FF33142B40F35384C3F134032EFA03F202FA7D
:2005200003F39E457FF472AF02F00102C2F102046DE706F1404303F5801353EA0B0300F00C
:200540003A83184B9E4240F36783BAF1000F15DBDDE900349B46214646E7022457E74A4671
:2005600048463B4639460EF0B3FE02460B460FF08DF9834638E7BAF1000F8EDB4FF0000BCB
:20058000594631E7AFF300809C7500883CE4377E0000F07F0000F03F0000E03FE81A010054
:2005A0000000E041FFFFEF3FFFFF3F43B6F5801F4FF0000205DAD04B0FF03EF80E466FF001
:2005C0003402DFF844E33315C6F31306A3F2FF3346F07F57764503EB020A47F4401740F380
:2005E000C983C64B00229E4240F304840023CDE90823CDE90C23C24B0022CDE906230AF1EF
:20060000010AA7F5801700263946DDE90623CDE90A010EF05DFEDDE9062380468946DDE9A4
:200620000A010EF057FE02460B460020B4490FF02DF90A4601461346CDE90E1202464946E4
:2006400040460EF0F9FF8C4683467B1043F0005303F5002399190020CDE904BC06460F466E
:200660004FF0000B6146584632463B46CDE910BCCDE902010EF0E0FF02460B46404649462C
:200680000EF026FEDDE9062380468946304639460EF01EFE02460B46DDE90A010EF018FE27
:2006A000DDE902230EF0C8FF02460B46404649460EF00EFEDDE90E230EF0BEFFDDE90478DE
:2006C000CDE906013A464346384641460EF0B4FF77A3D3E9002306460F460EF0ADFF76A341
:2006E000D3E900230EF0F6FD32463B460EF0A4FF73A3D3E900230EF0EDFD32463B460EF0BC
:200700009BFF71A3D3E900230EF0E4FD32463B460EF092FF6EA3D3E900230EF0DBFD3246A7
:200720003B460EF089FF6CA3D3E900230EF0D2FD3246804689463B46304639460EF07CFFFB
:2007400002460B46404649460EF076FFDDE9022306460F46DDE904010EF0BCFDDDE906237B
:200760000EF06AFF32463B460EF0B4FDDDE902678046894632463B46304639460EF05CFF5F
:200780000022604BCDE90A010EF0A4FD42464B460EF0A0FDDDE910BC0F46DDE902015A4628
:2007A0003B46CDE90EBC5E460EF046FF0022CDE90201544B304639460EF08AFDDDE90A236A
:2007C0000EF086FD02460B46404649460EF080FDDDE904230EF030FF324680468946DDE982
:2007E00006013B460EF028FF02460B46404649460EF070FD8046894602460B46DDE902013C
:200800000EF068FDDDE90EBC35A3D3E900235846CDE906BC5E460F460EF00EFFDDE9022329
:20082000CDE90401304639460EF052FD02460B46404649460EF04CFD2BA3D3E900230EF01B
:20084000FBFE2BA3D3E9002380468946304639460EF0F2FE02460B46404649460EF03AFD97
:20086000DDE90C230EF036FD8046504689460EF07DFE06460F46DDE9040142464B460EF02B
:2008800029FDDDE908230EF025FD32463B460EF021FDDDE906BC324658463B46DA468B46FC
:2008A0000EF016FDDDE9082330E000BFAFF30080EF4E454A287ECA3F65DBC9934A86CD3F52
:2008C00001411DA96074D13F4D268F515555D53FFFAB6FDBB66DDB3F033333333333E33FC6
:2008E000000000E009C7EE3FFD033ADC09C7EE3FF5015B14E02F3EBE0000404379B60B00DB
:200900000000F03F000008408E9803000EF0E0FCDDE904230EF0DCFC02460B4640464946EC
:200920000EF0D6FC80468946DDE90012013C54EA050314BFD64CD74C0023CDE904340B467D
:200940001446CDE9023400230293DDE9024508462B46114622460EF0BBFC52465B460EF022
:200960006BFEDDE9002306460F46404649460EF063FE02460B46304639460EF0ABFC064691
:200980000F4622462B4650465946CDE900670EF053FE0B46024680468946304639460EF067
:2009A00099FCBD4B064699420D460C4640F30E8101F13F4303F5E003034340F0F081A0A393
:2009C000D3E90023DDE900010EF084FC424682468B464B46304629460EF07AFC02460B464F
:2009E000504659460FF0B8F8002840F0D8812F463B154FF48012A3F2FE3342FA03F3234469
:200A0000C3F30A52A54EA2F2FF321641C3F3130B0020C2F1140523EA06014BF4801B0246BF
:200A20000B46002C4BFA05FB40464946B8BFCBF1000B0EF04DFC02460B4680468946DDE966
:200A400000010EF047FC4FEA0B5A00247EA3D3E9002320460D460EF0EFFD424606460F46C6
:200A60004B46204629460EF033FC02460B46DDE900010EF02DFC76A3D3E900230EF0DCFD8D
:200A800075A3D3E9002380468946204629460EF0D3FD02460B46404649460EF01BFC80469E
:200AA000894602460B46304639460EF013FC32463B4604460D460EF00BFC02460B46404612
:200AC00049460EF005FC2246804689462B46204629460EF0B1FD62A3D3E9002306460F4614
:200AE0000EF0AAFD60A3D3E900230EF0F1FB32463B460EF0A1FD5EA3D3E900230EF0EAFB2D
:200B000032463B460EF098FD5BA3D3E900230EF0DFFB32463B460EF08FFD59A3D3E9002336
:200B20000EF0D8FB32463B460EF086FD02460B46204629460EF0CCFB06460F4602460B46FD
:200B4000204629460EF078FD0022CDE900014FF08043304639460EF0BBFB02460B46DDE96A
:200B600000010EF093FE424606460F464B46204629460EF061FD42464B460EF0ABFB0246F5
:200B80000B46304639460EF0A3FB22462B460EF09FFB02460B4600203D490EF099FB8A4463
:200BA000BAF5801FC0F237815146DDE904230EF043FD834618E4F346354915E44A46484628
:200BC0003B4639460EF038FD83460DE4344B21F000479F4240F30181324B0B4403430CD1CC
:200BE00042464B460EF074FB02460B46DDE900010EF09EFF00283FF4FBAE23A3D3E90023CB
:200C0000DDE904010EF018FD1FA3D3E900230EF013FD8346FFF7E8BBBAF1000FBFF6AEAC1C
:200C2000DDE900349B4604F10041FFF7DDBB02460B46002016490EF029FE41E4AFF3008091
:200C4000FE822B654715973C00000000432EE63FEF39FAFE422EE63F396CA80C615C20BE16
:200C6000D0A4BE726937663EF16BD2C541BDBB3E2CDE25AF6A56113F93BDBE166CC1663FBE
:200C80003E5555555555C53F59F3F8C21F6EA5010000F03F0000F0BFFFFF8F40FFFF0F0078
:200CA000FFCB904000346F3F6F4B9E427FF763AC6E4B9E423FF7EEAB00226C4B0EF008FB57
:200CC0005BA3D3E9002306460F460EF0B5FC5AA3D3E9002380468946304639460EF0ACFCDB
:200CE000002282468B46624B304639460EF0A4FC02460B4652A1D1E900010EF0E9FA324659
:200D00003B460EF099FC02460B46002059490EF0DFFA3246CDE902013B46304639460EF0E8
:200D20008BFC02460B46DDE902010EF085FC46A3D3E900230EF080FC02460B46504659463B
:200D40000EF0C6FA02460B4606460F46404649460EF0C0FA42464B46002082468B460EF0FE
:200D6000B7FA02460B46304639460EF0B1FA80468946D9E500220023CDE90823CDE90C232D
:200D80003A4B00220026CDE906233DE44A463B46002036490EF07AFD8346FFF725BB2CA3F3
:200DA000D3E90023DDE904010EF046FC28A3D3E900230EF041FC8346FFF716BBBEF1000F16
:200DC0007FF44FABC3F1140348FA03F202FA03F3984524D07446FFF721BB264B9F423FF7CD
:200DE00007AEDDE902349A469B462EE602460B46FFF7B9BB204B4FF48026CDE9062316A37E
:200E0000D3E90023CDE9082315A3D3E90023CDE90C23FFF7F9BB5A4600F032F8C5E602F095
:200E20000102C2F10204FFF7F9BA00BFAFF30080000000604715F73F44DF5DF80BAE543EB7
:200E4000555555555555D53FFE822B654715F73F9C7500883CE4377E0000004003B8E23F54
:200E600006D0CF43EBFD4C3EFEFFEF3F0000F03F0000D03F0000E03F0000F83F0000000059
:200E8000F8B5C1F30A5604460D460B46174606BB21F00043034325D000222F4B0EF0CCFB95
:200EA0002E4A044697420D460B462ADBC1F30A56363E40F2FE723E44964228DC002E12DD49
:200EC00023F0FF4323F4E00343EA065520462946F8BD40F2FF729642EBD102460B460EF0E3
:200EE000F9F9F8BDF8BD16F1350F1DDA4CF250339F420CDC14A1D1E9000122462B460EF083
:200F0000DBF911A3D3E900230EF096FBF8BD22460FA1D1E900012B460EF0CEF90CA3D3E9B2
:200F200000230EF089FBF8BD23F0FF4323F4E003363643EA0655204629460022084B0EF0CC
:200F40007BFBF8BDAFF3008059F3F8C21F6EA5019C7500883CE4377E00005043B03CFFFF20
:200F60000000903C044B1A68B2F5806F03D01B689B0500D4FEE7704728ED00E0FEE700BF3F
:200F8000FEE700BF08B50BF017FA104A104B9A420DD2D0430F4918440B4620F00300043015
:200FA000084453F8041B834242F8041BF9D10A480A494FF000028842B8BF40F8042BFADB30
:200FC00000F03AFCFFF7CEFF08BD00BF00000020EA07002079200100F0070020BB350020B2
:200FE00010B5074C074803F0D1FF20680AF0E6FE206808220449BDE810400AF03FBF00BFB6
:2010000038080020280B01002808002038B5274A274B15681B880022264CEA54294626484D
:2010200003F0B4FF23462868696803C32348E18803F0ACFF2578E288214B042D1A800ED0EC
:20104000012D18D0022D21D0042D00D038BD022000F046FEBDE83840012000F049BE02F0E7
:201060007FF9184B81B21B881748C91A03F08EFF2578012DE6D100220221144804F0BCFF2B
:20108000134A25781378013B1370DDE7114802F0A7FA012000F024FE284600F029FE002282
:2010A00003210D4804F0A8FF2578CDE704320020FC2D00203C0800203C0B01005C0B010018
:2010C000D42B0020DA2B00206C0B010028040020EF2B0020BC0B01005804002070B50388DA
:2010E0000446B3F5AD7F10D040F26510834210D01BB100232380032070BD304802F070FAF0
:201100004FF4AD732380012070BD012937D0012070BD2B4B1B788B4213D02A4B1B788B426E
:2011200044D0294DAB68012181209847022000F0D7FD012000F0DCFD40F265132380012032
:2011400070BD214DAA42EDD1204E214B31780022013102201A709A70DA701A715A7131707C
:2011600000F0C6FD012000F0BBFD02F0F9F8194B1880FFF735FF184802F032FAD2E7002291
:2011800046F21E1115480AF01DFC034641F22700598A134D0A0A42EA0122188292B242F21D
:2011A000107110482B6003F0F1FEBAE70E4B1B789B07B6D5FFF72AFF034DB3E7D00B01004A
:2011C000B6350020B9350020A0100100EF2B002028080020DA2B0020000C01005808002009
:2011E00038080020E40B0100F831002070B5028804468AB1B2F5C97F0AD1022934D0264BB8
:201200001B788B4229D04FF4C9732380012070BD00230380032070BD46F21E111F480AF047
:20122000D1FB41F2270203461D4D02821D482B6003F0ACFE2B681C485D8A198A2A0A0B0AF8
:2012400043EA012142EA052292B289B203F09EFE4FF4C9732380012070BD144B1B789B07DA
:20126000D1D5FFF7D3FECEE7114A124B16880846002232210325DE801D7099701971DA7043
:201280005A7100F035FD012000F02AFD0A4803F07DFEFFF7A5FEB6E7B935002058080020A5
:2012A00038080020340C0100E40B0100F8310020D42B002028080020580C010038B540F261
:2012C000B913048805469C4226D040F2BD139C422FD01CB100230380032038BD264802F0CD
:2012E0007FF9224646F21E1124480AF06BFB034641F22700598A224C0A0A42EA01221882EA
:2013000092B242F210711F48236003F03FFE40F2B9132B80012038BD03291FD01A4B1B78E8
:201320008B42F4D1194B1B789B07F0D5FFF76EFEEDE7174804F0EAFC08B9012038BD154B17
:20134000002202201A709A70DA701A715A7100F0CFFC012000F0C4FCFFF742FE0E4B1B7867
:20136000002BD4D080210A4804F0B2FC40F2BD132B80012038BD00BF740C01005808002086
:2013800038080020E40B0100B9350020F83100201808002028080020EF2B00202DE9F04195
:2013A000102240490FF08EF8002876D1044601F0D7FF3D4DDFF828812880022000F090FC1D
:2013C000012000F095FC98F80030384F2833F95C374803F0DBFD07F108000AF0EFFC3548C8
:2013E00003F0D4FD07F118000AF0E8FC012000F077FC022000F07CFC2F4B29881B882F48E8
:20140000C91A03F0C3FD2E4B29881B882D48C91A03F0BCFD4EF6602001F05AFF2A4E0A20B5
:2014200002F0D6F8294803F0B1FD33887D1E43B115F8011F264803F0A9FD338801349C428E
:20144000F6DB0A2002F0C4F8224803F09FFD98F8003032882833D21A002AC8BF00240CDD6B
:201460003A19D15C1A4803F091FD98F80030328828330134D21A9442F2DB022000F030FC32
:20148000012000F035FC0A2002F0A2F8BDE8F04100220121104804F0AFBD1048BDE8F04154
:2014A00002F09EB858080020DC2B0020102E00208C0C0100FC1B0100D62B0020B80C010048
:2014C000D82B0020FC0C0100FC2D0020340D01008C1B0100500D010038040020700D010075
:2014E000062C00202DE9F8432D4A2E4C15790346E57104F118052F460026602001213A2280
:20150000A271617020706680186859689A68DB6804F10808DFF8A0900FC53946404606F010
:20152000BFFEDFF898E099F80030DEF8001028331D1980221A5505F108004B1C10226E70E1
:201540006E60CEF800300FF0C9F8174B18214022617126716E801A8008F0A0FAC04399F8F3
:20156000003068802833E15C104803F00FFD40460AF024FC0E4803F009FD38460AF01EFCE3
:201580004EF6602001F0A4FE0A2002F021F801F0E7FE084B1880BDE8F8430AF045BA00BF66
:2015A000942C0020102E0020FC2D0020900D0100FC1B0100D82B0020062C002054080020FD
:2015C00040F22B12F0B5038883B09342044600F08380B3F5967F49D2002B00F0828040F200
:2015E0001D12934273D1694804F090FB002848D004F03AFD664803F0C9FC664D05F184066F
:2016000015F8023C1BB12B7C012B40F2B3802C35AE42F5D1604E337833B1604960480AF0DC
:2016200071FC88B3002333705E4803F0AFFC5B480AF0C4FB4EF6602001F04AFE0A2001F084
:20164000C7FF594B0122594959481A7007F06EFA01F086FE574B18804C484FF4207104F0C6
:2016600037FB4FF4A073238001200BE0B3F5977FD0D0B3F5A07F2AD1444804F047FB002829
:201680005FD1012003B0F0BD02A941F8040D44480AF048F9431EDBB2012B0546074639D919
:2016A00050BB019B53B33E49434803F06FFC019B002B2DD0186859689A68384DDB68042F0B
:2016C00037700FC533D0002F4CD13378A4E700230320238003B0F0BD384B1B788B42D0D13D
:2016E00098E74FF42071294804F0F2FA40F21D130120238003B0F0BD04281DD02A462849C6
:201700002F4803F043FC019B002BD3D13570DAE73370DAE722492B4803F038FC20480AF084
:2017200009F8019B0BB10427C4E70423337040F22B1301202380A5E71949234803F026FC0E
:20174000EFE7224801F04CFF174B1B78002B83D01248FFF7C7FE022000F0C2FA012000F0A6
:20176000C7FA79E71A4801F03BFF4FF497732380012087E728460AF021FB4EF6602001F003
:20178000A7FD0A2001F024FF41E700BF44080020BC0D0100AE2C0020E607002058080020C3
:2017A000DC0D01006C0E0100EE2B00209D13000030080020D62B0020140E0100B835002032
:2017C0009C0E0100F80D0100300E01008C0E01004C0E0100F0B5002706463C463D4683B0D3
:2017E000304600F07DFA0195019B9C4206DD00BF019B01330193019B9C42F8DC304600F042
:2018000077FA0195019BC4F5C874A34206DA00BF019B01330193019BA342F8DB0137B7F510
:20182000487F06D0B7F5C87FCCBFC7F548743C46D6E703B0F0BD00BF2DE9F043774C87B074
:201840002368012176485B6898472368012211461B68734898470AF07BFC02F0DDFA02F02D
:2018600055FA01F0AFF802F08DFA00F02FFA6D496D4A01256D4B0D60284615601B68FFF7DB
:20188000A9FF0AF069FC01F06DFD01F091FC04F0EBFB01F04DFE04F037FB41F2342003F0B2
:2018A00029FA02F007F804F06BFC614801F098FE4BF2AC7200215F4803F068FB5E4801F079
:2018C0008FFE0AF0AFFB5D4C5D4E10F0040F14BFA046B0460AF0AEFBA8420CBF274637467F
:2018E0000AF0A0FB10F0020F14BFA146B1460AF099FB10F0080F08BF34464B463A46009406
:201900004146504803F042FB00214F4804F0D2FA04F070F804F0EAF801F022FD4B4A4C4B92
:20192000106002201D70FFF755FF4A4803F02EFB494B4A4C186801F053FE494803F026FBFF
:20194000484B186801F04CFE474803F01FFB2168464803F01BFBE469A04720B1A04701464A
:20196000434803F013FB0A2001F032FE00260BF0BDFC04A808213F4D3F4F039601F068FED7
:201980009DF817309DF8164004AA03CA43EA0424D7F82C802860696002204AF6CD31C0477D
:2019A00021460320C0470B210120C047082204A97B6B0B209847BB6A03A90120984703990E
:2019C0002E4803F0E3FA2E4B21462E481C8003F0DDFA2D4B6A6829685A6019600BF0F4FD0B
:2019E00031462A4804F066FA0220FFF7F3FE3146274804F05FFA274803F0A6FF01F0A6FDD3
:201A00000120FFF7E7FE04F099FA044601F0D2FD14F0FF0FF7D102F009F8F4E7D8010010A8
:201A2000004003400C400940080009402C200940340F01005C0F0100740F01002C0F010038
:201A4000300F0100880F010044050020642C0020582C0020BC0F010044120100E41E0100CB
:201A6000C40F0100B81E0100CC0F0100D40F0100D80F01008035002048110100FC0F0100D8
:201A8000DE2B002010100100082E00200C06002068040020180F01002DE9F04104880646A1
:201AA000772C30D07E2C27D024B1002303800320BDE8F08104F0F6F92F4F304B304D3A6833
:201AC00018702C60002A55D02346A0462D4C04F8038093680021802098472B68013357F8AB
:201AE00023202B60002AF2D1DBB2274A1370772333800120BDE8F081204B1B788B421CD06F
:201B00000120BDE8F081DFF880801D4D98F800201E4F00233B602B60002AE8D0194CE25668
:201B2000002A18DB2B6898F80020013393422B60F5DB3B68002BECD1D9E7114D114CDFF804
:201B40004880124F2B683A68E15C013201F07F01E1543A60E7E7084A084952F823200978F8
:201B6000002004F049FA0028ECD17E2333800120BDE8F0811346B8E778040020B6350020FF
:201B80006C080020142C0020F02B00206808002010B40E4B1C7864B10D4A1368984213D031
:201BA000002303E052F8041F88420BD00133A342F8D1084A0848135D63F07F03135510BC10
:201BC00004F046BA1C46F4E70024F2E7F02B002078040020142C0020680400202DE9F041CD
:201BE000364D2C7828704440A10714D500F0020000F0FF0848BB324EF378002B52D1337940
:201C00002F4E002B42D1E2072B7807D4BDE8F041184600F091B80346E207F7D513F001062D
:201C200027D1274C6279002AF0D001F099FB2549254B4A695F692B78D21B10444861667132
:201C40001846BDE8F04100F077B801F089FB1E4F1B4E0123F860F3702B78DFF860809B070B
:201C6000CDD501F07DFB0122386198F800303271D2E701F075FB144C114A2B7801216061DF
:201C800051711846BDE8F04100F056B801F068FB0C4A0D4913690F690021DB1B1844106178
:201CA0003171B0E701F05CFB074F0649FA68CB6886F803809B1A1844C860CDE7F12B00203F
:201CC000582C0020242C0020642C002008B500F017F8024B00221A7008BD00BFF12B0020CB
:201CE000024B1B781843FFF779BF00BFF12B0020024B1B7823EA0000FFF770BFF12B002032
:201D00000A4B1A6802B1704710B50122084C1A6023680A20DB6B984723680F20DB6B984713
:201D2000044B4FF404421A6010BD00BF70080020B4010010A0200240094B0A494FF4044236
:201D400008701A60C20744BF4FF4806243F8102C830703D5044B4FF400421A60704700BF03
:201D6000A0200240F22B002090200240813801289ABF024B18680020704700BFB4080020B8
:201D8000024B032202481A60FFF702BFB40800203010010010B5044682B07721002001F04F
:201DA00089F94CB98DF8074001220DF10701F4200BF094FE02B010BD25238DF80730F3E7A9
:201DC00030B5802885B016D0812810D11D4C206878B151B30120FFF7DDFF00231A4A032115
:201DE0001A4803F041FE0220206005B030BD154B186805B030BD134C0125772100202560C7
:201E000001F058F91822124988200BF059FE04A9B62301F8013D2A46E0200BF05FFE00204C
:201E2000FFF7B8FF206805B030BD0848019103F043FE01990846FFF7ADFF01231846236026
:201E400005B030BDB4080020811D0000940800207C0800202DE9F843584B1B68032B40F031
:201E6000A880431E012B00F2A480554E00237721044633601846B38001F01CF93146062226
:201E8000F7200BF01DFE002800F0858031794D4FF2787379090141EA0231388841EA1312E4
:201EA000C0EB121303FB03F3B7F904104000B7F902501B13C0EBD20201FB03F305FB02F2C5
:201EC0009B1303EBE2234FEA630CACF57A4C4FEAAC0E0EFB0EFEB7F90810B7F90A004FEA8F
:201EE0006E320CFB01F102FB00F2491001EBE2029214F98802F5004201FB02F2BB61D013E2
:201F000096F8008096F80190B5784CD0B7F90E20B7F910100CFB02FC4FEAEE2E4FEA4C0CB2
:201F200001FB0ECCB7F90C204FEA151E4EEA0916120446EA083602EBAC05234906EB253553
:201F400005FB01F101F1434101F5A0010029B3BFB1FBF0F14900B1FBF0F14900CA0802FB6C
:201F600002F2B7F914008D08B7F916E000FB05F5560B0EFB06F2B7F912006D1305EB223291
:201F80001044012C01EB201110D103EB830080300012BDE8F883304606210BF0BBFD4FF0E0
:201FA0000040BDE8F883012C0146EED00846BDE8F8834FF00040BDE8F88300BFB4080020E7
:201FC000740800207C080020CBF3FFFF813801289ABF024B18680020704700BFDC08002063
:201FE000024B032202481A60FFF7D2BDDC0800204010010010B504464421002001F05AF8FA
:20200000002C064B14BF1024002402221C801946BDE8104010460BF061BD00BFE02B0020AB
:2020200010B5802882B017D0812811D11D4C206880B1002929D00120FFF7DCFF00231A4AD2
:2020400024211A4803F010FD0220206002B010BD144B186802B010BD154C012023689B6B47
:20206000984723684FF480419B690120984723684FF08041DB69012098470020FFF7BAFF50
:20208000084B0120186002B010BD0848019103F013FD01990846FFF7ADFF01231846236061
:2020A00002B010BDDC080020E11F0000BC080020B401001038B5354B1B68032B0BD1820771
:2020C00009D003280FD0012809D0022803D1304B1B68184638BD4FF00043184638BD2D4B7F
:2020E0001B68184638BD2C4D44210446002000F0E1FF2946022204200BF0E2FC70BB274DC3
:20210000264804210BF006FD00202C786B78A978EA7843EA042442EA01220028DBD09008F5
:202120000DF044FE4FF074510DF094FE1C490DF091FE0DF0DFFF174B154D1860A0080DF020
:2021400035FE4FF074510DF085FE15490DF082FE0DF0D0FF01232860184638BD2A88130A53
:2021600043EA02239BB22B805B040C4DC8D50222294601200BF0A4FC0028C1D0022220462E
:20218000A9180BF09DFC0028BFD1B9E7DC080020E4080020B8080020E02B0020E00800206F
:2021A00000007A44014B1868704700BF0809002070B506460E4C82B045210020256800F0EE
:2021C00079FF76B905F002054FF486532560ADF8063002220DF1060101200BF07FFC02B06E
:2021E00070BD41F2C2020123ADF806202360F0E70809002000B5452183B0002000F05AFF8A
:2022000002220DF1060101200BF05AFCBDF90630002B08DB0023084A1021084803F024FC20
:2022200003B05DF804FB0648FFF7B2FC054B02221A6003B05DF804FBF5210000E80800208A
:202240006010010008090020802810B50DD0812809D10C4671B90D4803F02EFC2046FFF7C5
:20226000A7FF204610BD002010BD0020FFF7A0FF002010BD0120FFF79BFF0023044A1021A3
:20228000024803F0F1FB012010BD00BFE8080020F5210000813801289ABF024B186800201A
:2022A000704700BF2C09002070B5134C134A237803211160CBB1124D4321002000F0FAFEFB
:2022C0002846042100F08AFD00212070084600F0F1FE28886988020A0A4E0B0A0A4D42EA79
:2022E000002243EA012332802B80012323700748BDE87040FFF74CBCF32B00202C09002022
:2023000030090020E22B0020E42B00207010010030B5802883B023D081281DD1234C206846
:20232000E0B100293AD0224D2B785BB14321002000F0C0FE002000F019FD0021287008465C
:2023400000F0B8FE00231B4A03211B4803F08CFB0220206003B030BD144B186803B030BD8D
:20236000164B0024164A174D20461C60432114802C8000F09FFE02A90222102321F8023DA7
:2023800010460BF0ABFB0A4B21461870204600F091FE064B0120186003B030BD064803F052
:2023A0008BFB01231846236003B030BD2C090020F32B0020A92200000C0900203009002006
:2023C000E42B0020E22B002008B5174B1B78032B28D8DFE803F01E150C020DF0C7F80022E8
:2023E0004FF07D530DF028F90DF0D6FB08BD0DF0BDF800220D4B0DF01FF90DF0CDFB08BD52
:202400000DF0B4F800220A4B0DF016F90DF0C4FB08BD0DF0ABF80022064B0DF00DF90DF0FC
:20242000BBFB08BD002008BDF72B00200000303F0000203F0000103F813801289ABF024B55
:2024400018680020704700BF5C090020024B022202481A60FFF79CBB5C0900208810010041
:2024600010B50C4C6821012000F024FE3F23214601226C2023700BF031FB21464F23012255
:202480006B2023700BF02AFBBDE810400021084600F010BEF82B0020802838B50BD0812880
:2024A00006D111F03F012DD1294B1B68DB043BD4284B186838BD284C072023689B6B98472E
:2024C00023684FF400519B690720984723684FF08041DB690720984723680C20DB6B984722
:2024E00023684FF440729B6A4FF480610C2098471A4A4FF480501A4B1060164900221A60E1
:20250000086838BD1648174B124D4FF48052016001241A6008210023134A14482C6003F09E
:20252000A3FA2C60204638BD0D4B1048196003F0C3FAFFF795FF0E4A136813F00103FBD10E
:20254000044A06494FF4805013600860106838BD802002405C090020B4010010A020024055
:2025600060090020902002409D2500003C0900200428004010B5084C6821012000F09AFD03
:20258000214601223A200BF09BFA0021084600F091FD207810BD00BFF42B00202DE9F04130
:2025A000364C236813F0380F28D1354D03F03F042E785EB9002C3BD1FFF752FFBDE8F04101
:2025C0000023304A0521304803F04EBAE3B22B70002CF1D02D4FDB43682101203B7000F0C9
:2025E00069FD012229496C200BF078FA0021084600F060FD264809F0B3FDDFE7254E327831
:20260000002AD2D0244F0025682101203D7000F051FD394601221C200BF060FA07462946D2
:20262000284600F047FD2368002FBED03570BCE7164F6821012000F03DFD09233946012261
:202640006B203B700BF04AFA3F23394601226C203B700BF043FA01220F491C202E700BF042
:202660003DFA394601223A200BF02AFA3146304600F020FDE3B22B70ADE700BF6009002002
:20268000F62B00204D2400003C090020F82B002080380100F72B0020F52B002008B5034B9A
:2026A0001B685B689847C0F3804008BDB401001028B1012806BF054BD86800207047044B7B
:2026C000186800F0010080F00100704774090020C020024028B1012806BF054BD86800202B
:2026E0007047044B1868C0F3001080F00100704764090020C0200240813801284FF0000099
:2027000000D97047FFF7CABF8138012801D9002070470420FFF7C2BF802870B514460AD07B
:20272000812807D1E1B9BDE87040184B10461B685B6B184770BD154D1549012393402A6852
:202740000B60936B204698472B6820460021114A1B689847E0B21049BDE8704001F0FCBA0D
:202760000A4D0B49012393402A680B60936B204698472B6820461B68064A002198472B6818
:202780002046BDE870401B6B184700BFB4010010E020024000400720B527000008B50022B1
:2027A000FFF7BAFF012008BD08B50422FFF7B4FF012008BD38B518B10428044614D038BD0D
:2027C0001D4C204603F07AFC0028F8D00421204603F060FC194B1B6813F001051DD100F029
:2027E00033FDE560A06038BD154D284603F066FC0028E4D02146284603F04CFC0F4B1C6880
:20280000C4F300149CB100F01FFDAB68C31AEB600C48BDE83840FFF7BBB900F015FDA36871
:20282000C31AE3600848BDE83840FFF7B1B900F00BFDEC60A86038BD74090020C0200240AB
:2028400064090020B8100100A0100100024B1868C0F3C000704700BFC020024081380128B7
:2028600001D90020704708B5034B03201B685B689847C0F3804008BDB4010010802810B5EA
:2028800009D0812805D1134B03201B68E9B95B6B9847012010BD0F4C032023685B6B9847F9
:2028A0000D4B0E4A1B6808211160DB694FF4A060984723680A4A1B6800210320984709490E
:2028C000032001F049FA012010BD1B6B9847012010BD00BFB4010010B8010010E0200240D1
:2028E00000200320E928000038B50E4803F0E6FB18B90D4DAB784BB938BD0C48FFF748F99B
:20290000BDE838404021074803F0C4BB044600F027FD074A074993688968AC705B1A1844A0
:20292000906038BD84090020582C0020C8100100242C0020642C002010B5064C04202368A2
:202940005B699847236804205B6B98470128F9D110BD00BFB8010010FFF7EEBF032801D099
:2029600000F016B908B50BF0B7F9104B00219B68812098470E4B00219B68812098470D4BDC
:2029800000219B68812098470B4B00219B68812098470A4B00219B6881209847084B4FF40A
:2029A00080521A60BDE8084000F0F2B8301001006010010040100100701001008810010027
:2029C000A020024070B509F0C3FB0646FFF7B4FF3C4B4FF4A0601B68DB6998473A4B01210D
:2029E0003A4A196013689B07FCD5394C00F0A2F80BF06CF90BF060F9364801F07BF92368BB
:202A000019209B6B984723684FF400519B6919209847236818209B6B984723684FF4005196
:202A20009B6918209847236817209B6B984723684FF400519B691720984723681B209B6BCF
:202A4000984723684FF400519B691B20984723681E209B6B984723684FF480419B691E20DB
:202A6000984723680D20DB6B98471B4A4FF400552368156000214FF480729B6A0D20984736
:202A8000236802209B6B9847236829469B690220984723680B209B6B9847236829469B690C
:202AA0000B20984723681D209B6B9847236829469B691D20984706B170BDBDE8704009F013
:202AC0004BBB00BFB80100102820086028200840B40100109C040020A020024010B5094B88
:202AE00009481B685B68984710F00C0F044605D0064B04221A60022009F032FBB4FA84F0CB
:202B0000400910BDAC010010002000400428004008B5064B02201B685B6B9847012803BFD3
:202B2000034B186800F00100002008BDB80100106020084070B5104D02202B685B69984786
:202B40002B6802205B6B9847012804460A4BF7D11B684FF44070DB699847084B084A1C60D1
:202B600013689B07FCD5074B01221B6806491B680648BDE870401847B80100102820086022
:202B800028200840AC010010006CDC0200200040214B10B5FF221A70FFF7BAFF20B11F497A
:202BA0001F4A00230B6013601E4B4FF440701B681B6A98471C4B01211C4A196013689B07E3
:202BC000FCD51B4C082023689B6B984723684FF400519B6908209847236809209B6B984762
:202BE00023684FF400519B6909209847236805209B6B984723684FF480419B69052098477E
:202C0000236806209B6B984723684FF480419B690620BDE810401847E70700200428004097
:202C200010040542B80100102820086028200840B40100102DE9F0470646484B48481B781C
:202C4000484A5B00036033780F46136000F088FBDFF8148100F5CC551935D8F80030424CE0
:202C60005B063FD403232360022009F079FA00F077FB00F5CC5519352368D8073AD4FFF775
:202C80002DFF012F034665D988B3DFF8D880364D013607F1FF39022416F8012B631E4B458C
:202CA000C8F800202CD3BC423FD32F4C05232360022009F055FA00F053FB00F5CC551935F3
:202CC0002368DA073AD4FFF709FF044600F048FB254E00F5CC55193533685B0634D42046BE
:202CE000BDE8F08700F03CFB401B0028B5DB0020BDE8F08700F034FB401B0028BCDBF6E72C
:202D000001232B60022009F02BFA00F029FB00F5CC5A0AF1190A2B68D90708D4FFF7DEFE56
:202D2000BC42034616D20028E1D00134B4E700F017FBCAEB00000028EDDBD8E700F010FB5A
:202D4000401B0028BCDBD2E700F00AFB401B0028C2DBCCE7002BCAD0A7E700BFF92B002082
:202D600000280040082800400428004070B5174B17491B78174A5B000B60106000F0F0FA24
:202D8000154E00F5CC5519353368134C5A0612D407232360022009F0E3F900F0E1FA00F5C8
:202DA000CC5519352368DB070CD500F0D9FA401B0028F7DB04E000F0D3FA401B0028E3DB5C
:202DC000002070BDBDE87040FFF788BEF92B00200028004008280040042800402DE9F04F38
:202DE000404B414A1B7883B05B0043F00103136005460E4600F0B4FA3C4F00F5CC541934C8
:202E00003B683A4A13F040032BD11746BA460B2111600220DFF8D8901C4606F1FF3809F065
:202E20009FF9012244452CDA02B300F099FA00F5CC5B0BF1190B3B68D9071BD4FFF74EFE20
:202E400002460028EED00192D9F80010092329550220CAF8003009F083F9631CDCB2019AF5
:202E6000E0E700F07DFA001B0028C9DB002003B0BDE8F08F00F074FACBEB00000028DADB55
:202E8000F4E7002AF2D0194C05232360022009F067F900F065FA00F5CC5719372368DA07BD
:202EA00013D4FFF71BFE0028E0D0114B35441B680E4E05F8013C00F053FA00F5CC541934B7
:202EC00033685B0607D40120D1E700F049FAC01B0028E3DBCAE700F043FA001B0028EFDB63
:202EE000C4E700BFF92B00200028004004280040082800402DE9F04F82466A4D6A4C2878B6
:202F00000E46400020609AF80000684983B008601746984600F024FADFF894B100F5CC5940
:202F200009F11909DBF80030614C5A0636D403232360022009F014F900F012FA00F5CC5974
:202F400009F119092368DB0732D4FFF7C7FD012E03463BD940B3DFF854B1DFF85491564477
:202F60000AF1010414F8013B0220CBF800300123C9F8003009F0F4F800F0F2F900F5CC5A04
:202F80000AF1190AD9F80030D80718D4FFF7A6FDB44203461AD00028E4D105E000F0E0F9FA
:202FA000C9EB00000028BDDB002003B0BDE8F08F00F0D6F9C9EB00000028C3DBF4E700F0A2
:202FC000CFF9CAEB00000028DCDBEDE70193002BEAD037492A780C463348520042F00102D2
:202FE0000B2502600D60022009F0BAF8A24608F1FF3900252D4E019B03E0FFF76FFD034622
:2030000098B94D451DD2002BCED000F0A9F900F5CC5B0BF1190B2368D907EED500F0A0F990
:20302000CBEB00000028F6DBBEE701933168092279550220CAF8002009F092F80135019BBD
:20304000DFE7002BB0D01A4C05232360022009F087F800F085F900F5CC5519352368DA0716
:2030600005D500F07DF9401B0028F7DB9CE7FFF735FD002898D00D4B47441B680C4D07F8C2
:20308000013C00F06DF900F5CC5419342B685B0601D4012089E700F063F9001B0028F5DB82
:2030A00082E700BFF92B00200028004008280040042800402E4B10B504461970FFF728FD34
:2030C000B0B12C4B1A78A24218D02B482B4900221C7002600A601B788BB1012B2BD0BDE8BE
:2030E0001040274B01221B6826491B6826481847FFF720FD1F4B1A78A242E6D110BD234CC3
:203100004FF4C041236805209B69984723684FF4C0419B6906209847236806220521DB6CE0
:2031200019489847236808209B6B9847236809209B6B9847D3E7154C4FF4C041236808200C
:203140009B69984723684FF4C0419B6909209847236809220821DB6C0B48984723680520A9
:203160009B6B9847236806209B6B9847B7E700BFF92B0020E707002004280040100405425E
:20318000AC010010006CDC0200200040B401001010B5064C042023685B69984723680420EB
:2031A0005B6B98470128F9D110BD00BFB8010010F8B51A4A00200021C2E90001184B04209D
:2031C0001B685B6B9847012801D0FFF7E1FF144B00201B68DB699847124B0121124A19607E
:2031E00013689B07FCD5114A11491368096823F4807323F001030F4C13600B6820460E4921
:20320000984740F221200D4D0D490E4B04273126012227602E6008601A60F8BDF0070020EB
:20322000B801001028200860282008400C000140C801001000000140002100043C0001407C
:20324000080001400400244310B40949094C0B68226808688342FAD1DB01074903EB526284
:203260000023C1E9002310BCD1E90001704700BF082009400C200940F007002010B50B494B
:203280000B4C0B68226808688342FAD1DB01094903EB52620023C1E9002302F03DFD00B935
:2032A00010BDBDE8104002F00DBD00BF082009400C200940F007002010B508F049FF034B81
:2032C0001C6808B908F048FF204610BD0820094038B51A4B05461B6804205B6B98470128B4
:2032E00001D0FFF755FF154B154A1B680020DB6914689847134B0121134A04F00104196063
:2033000013689807FCD5114B11491A460D60196841F4807119601368D905FCD404B138BD4C
:20332000064B20461B681B6A9847064B0121064A196013689B07FCD538BD00BFB801001048
:203340005420084028200860282008400C0001402C000140704700BF0146012000F052B8DF
:2033600008F04EBE2DE9F04108F0F2FE1D4E1E4B1E4F32680124002580464FF480314FF4F8
:2033800080703D601C60186019601368284623219847336820461B6824219847336825219E
:2033A0001B6802209847124A1249136843F4E02313600D6008F024FE0F4B1049104A1B6893
:2033C00000F50070086014603C601B6914209847B8F1000F01D0BDE8F081BDE8F04108F00C
:2033E000BBBE00BF8401001004200940000024430020094008200940B00100101C2009400C
:20340000A0022443431E012B10B419D9042801D010BC704700231A4610F004001CBF0E4C24
:20342000216013B10D4B0121196012B10C4B01221A600028ECD00B4B01221A6010BC704743
:2034400010F0010302D0084A0123116010F00202E2D0064C2160DFE72020094080022443EE
:20346000A0022443C0022443182009401C200940014B1868704700BF8C09002038B5FFF73A
:203480006FFF204D204C0123A370A860FFF768FF1E4B1860FFF7F2FE1D4B1B681BBB1D4B59
:2034A0001B68BBB91C4B1B6833B11C491C4B00204FF4803208601A60A378134C4BB1FFF718
:2034C0004FFF184AAD68936800215B1B18449060A17038BD1449124B0020012208601A6064
:2034E00002F0C4FDDEE70E4B4FF480721A6008F087FD00F2052020F4FF700C4B20F00100CE
:203500001860CCE7642C0020582C00208C090020A000244380002443C0002443C002244339
:2035200004200940242C0020800224431C20094003490448044B012208601A60704700BFDE
:2035400000000840FFFF0F00000C0840F8B508F0FFFD124AB0FA80F01368012B0BD0104CCD
:20356000104D1149114A0123400925600B601360C3070FD4F8BD0E4F094D0A4E0A4C0B4952
:20358000400940F0020017602E6023600B601360C307EFD5BDE8F84008F0DEBD000C0840F8
:2035A00000000840FFFF0F000C0008400401004351E5CC1A03490448044B012208601A6012
:2035C000704700BF00000840FFFF0F000C00084010B50446C0B200F081F9204610BD00BFEF
:2035E00070B506460024451E04E015F8010F00F075F9013430460DF0BFF9A042F5D80A203B
:2036000000F06CF900F07EF90128FBD0204670BD70B50446B0B10078C0B1A9B100256618B1
:2036200004E014F8010F38B1B44205D000F056F9631C05F10105F4D100F064F90128FBD016
:20364000284670BD0546F7E70D46F5E70546F3E710B40B4B0B4C13F8012FFF2A0DD1A342BA
:20366000F9D1094A39B11144013801390B78914200F8013FF9D110BC7047044AF2E700BFBA
:20368000C7FF0100CFFF0100F0120050C8FF010038B50C4D02202B685B6998472B68022027
:2036A0005B6B984701280446064BF7D11B684FF40070DB699847044B044A1C6013689B074A
:2036C000FCD538BDB801001028200860282008402DE9F04340F2F275DFF8E08083B0FFF7D9
:2036E000D7FFD8F800302B4EDB682B48984733682A4C5B69152098472368DFF8C490284FD0
:2037000023F4FE63D9F8002023F0020323603D60D36B1D2098472349D9F800204FF0FF33E0
:203720004FF0005008600093D2F840901C211D221948C847D8F800206023D2F804801A4955
:203740004FF4E1321448C04740F2011240F2013E1649174B142008601968164841F010017C
:20376000196003681449002B0CBF134673460B603D60036853B12368326843F0500323605B
:203780001369152003B0BDE8F043184703B0BDE8F08300BFB001001000100040381000406B
:2037A0004410004090200240006CDC02341000402C1000409009002030100040D00100101F
:2037C000B401001008B5064B02201B685B6B9847012803BF034B186800F00100002008BD3D
:2037E000B80100106C20084038B50446FFF7EAFF18B1264A13681907FCD4032C03D0244B01
:203800001B6803B138BDFFF7DDFFF0B9214D4FF400702B681B6A9847032C2CD01E4B012133
:203820001E4A196013689B07FCD51D2000F07EFA1C2000F07BFA4FF0FF3000F077FABDE8FF
:2038400038404FF0FF3000F071BA154B15481B68DB689847144B15201B685B69984740F219
:20386000F270124A1249136823F4FE6323F0020313600860CAE72B684FF400709B6A98476E
:203880002B684FF400701B6B9847C7E71810004090090020B80100102820086028200840A5
:2038A000D001001000100040B0010010381000404410004010B508F04BFC0446054800F06F
:2038C00019FA054B00221A6004B110BDBDE8104008F042BCB00400209009002010B50446E0
:2038E000FFF770FF08B9FFF7F3FE044B2146BDE810401B680248DB69184700BFD001001000
:203900000010004008B5FFF75DFF18B1024B1868C0F3C00008BD00BF18100040F8B5FFF7B0
:203920001FFD174F174E0123B370B860FFF7B0FE40F2F271144B154A1B68116013F0500FF4
:203940000CD0134C134D05E02B681B699847124B1B688BB923681148DB06F5D5B378094CBE
:203960004BB1FFF7FDFC0E4ABD68936800215B1B18449060A170F8BDC0B29847EAE700BF5A
:20398000642C0020582C0020401000404410004018100040D001001090090020001000405D
:2039A000242C00202DE9F041FFF7DAFC1A4C024623783BBB194D1A4F0123396802206A60C5
:2039C000637002F0C9F8174ADFF850801368124E23F00403136030BF022002F09FF83860BF
:2039E000FFF7BEFC637843B10F4AD8F8047053680021DB1B034453607170012328602370BF
:203A0000BDE8F0810849054D0B682E6800209B1B13440B602070CEE7582C0020642C0020B3
:203A20009809002010ED00E0242C00202DE9F04108F08EFB02F0D6FA18B1BDE8F04108F057
:203A40008BBB994802F0B2FB0225044648B1636823B19847A84228BF2846C5B22468002C4A
:203A6000F5D1FFF77DFC914B04461B68002B40F0BC8002F051F9002840F0E3800346012D63
:203A800000F0C680022DD8D1002840F0F880611E2846FFF7B7FC844802F088FB06250446FC
:203AA000002800F0AE80A368022003B198472369246825EA0305002CF5D1FFF77BFD6B07FF
:203AC00005F0060400F1A080002C40F0D28000F0FDF900200AF06AFA7549764A0B68764815
:203AE00023F003030B601368016843F00F0313608B6939209847714A714900231360184611
:203B000013600B6008F040FF062C00F0BD806D4D6D4C2968022002F01FF8FFF721FC237854
:203B2000002B00F08C80694A694E136837680021DB1B034413602170664A0121664B706025
:203B400061701B6865491368096823F0030313604B68634803219847574BDFF874811B6899
:203B6000594F9B6B9847022001F0D8FF2860FFF7F7FB637843B1554AD8F8045053680021F0
:203B80005B1B0344536079700125534F306025703B6809F02BF8514B524A1B6800211160D3
:203BA0004F485B68294698474A4A4F49136843F0030313600D603B6809F050F80AF0C2F904
:203BC000FFF75CFBFFF7F6FC374802F0EFFA044628B1E36803B198472468002CF9D108F0DB
:203BE000BBFABDE8F04108F0B7BA404B1B681B1A022B39D4A3F28F23002BBFF63AAF012320
:203C000033E0FFF7D7FC0624374B00221A605BE7002840D06FF00702121BDA4238D404F550
:203C20008031CA1A11EA220138BF19460220FFF7E9FBFFF7B7FEBDE8F04108F08DBA244E4D
:203C40007AE702F071F80646FFF7FEFA361A002E7FF7F3AEFFF70CFC254A00EB4623121BEB
:203C6000DA421BD401200AE700239D4228BF1D46FFE6114B20461B689B69984727E7194661
:203C80002846FFF7BFFB06E7022008F00BFB3EE704F10801CAE704F58031C7E7022DB9D015
:203CA000012D7FF4CAAEB5E794090020800224430010094008100940B8010010401009408D
:203CC0002004224398090020582C0020242C0020642C0020242208402C200940D8010010CA
:203CE00000400340800104430C4009401820094071FDFFFF0146014802F05ABA94090020A4
:203D00000146014802F0A6BA9409002010B5054802F048FABDE81040034B20211B68032094
:203D20001B6818479409002084010010431C0ED010B50446064B4FF4C0421B6800211B6846
:203D40009847044AA3001A430023136010BD7047B4010010001A444238B504460D4608F035
:203D6000F7F901230549064AA3400B6042F8245000B138BDBDE8384008F0EEB9E0200240F1
:203D80009C090020064B002103F1800243F8041F9342FBD1034B10201B681B69184700BFD4
:203DA00098090020B00100102DE9F843FFF7D8FA01229146134E144BB270D3F80080134FDF
:203DC000134DB8600024C3F8008009FA04F313EA080FE0B203D055F8243003B19847013430
:203DE000202CF2D1B378074C4BB1FFF7B9FA094ABD68936800215B1B18449060A170BDE885
:203E0000F88300BF582C0020E0200240642C00209C090020242C002000B585B0002241232D
:203E200002A8029203930AF0A1F8042008F02AFA032810D00321042008F0FCF9042008F07F
:203E400021FA0328FAD100901C234FF040520021044808F0A3F902A80AF0DEF805B05DF82C
:203E600004FB00BF00A00C4000B583B00022412368468DE80C000AF079F8012008F002FA7B
:203E8000012803D00121032008F0D4F968460AF0C3F803B05DF804FB00B583B00022412344
:203EA00068468DE80C000AF061F8012008F0EAF9012803D0044B986B08F08CF868460AF012
:203EC000ABF803B05DF804FB4800001010B582B0412368460024019300940AF047F803202F
:203EE000214608F0A7F9012008F0CCF918B1044B986B08F06FF868460AF08EF802B010BDBE
:203F00004800001008B50AF0C7F830B1044B5B88022B14BF0220012008BD022008BD00BF12
:203F2000580A002008B5B32994BF0A46B422014602480CF0F9FA002008BD00BFDA0A0020C5
:203F400030B589B002A840F6020218210AF0F8FA124A9DF81830126803F0F8039588104C20
:203F60006FF3C303012202A801A9ADF81A508DF8183007948DF816200AF096F8012802D0ED
:203F8000002009B030BD02A80AF0D8F8A0F10100B0FA80F0400909B030BD00BFC4040020A5
:203FA000DC04002070B50E4D0E4E2C68002006E02379022B06D024682B689C420ED0237975
:203FC000032BF5D133780120002BF4D1064802F03FF824682B6801209C42F0D170BD00BFEF
:203FE000480A0020FC2B00206406002030B583B00AF0A0FA04460AF04FF808B903B030BDE6
:2040000001A90A480AF050F80128F7D1FFF7A8F900F1400504E0FFF7A3F9401B0028EDDAE4
:20402000638803F44063002BF5D0E7E7010001040B2807D00C2801D001207047042A11D041
:2040400002207047082AFBD10029F9D0094B0139A3F1080013F8012D834201F8012FF9D17C
:20406000002070470029EBD0034B00201B680B60704700BF880A0020E40D002070B582B099
:204080000AF00AF848B901A917480AF00DF801280CD00023184602B070BD134C6388022B3F
:2040A00008BF0123EFD1184602B070BDFFF758F90D4C00F1400504E0FFF752F9401B00289A
:2040C0000EDA6388084E022BF6D1FFF749F901221346064C0649E0611846CA7102B070BDB5
:2040E0007388022BD5D1F0E7580A0020642C0020582C002008B5FFF723FF012801D0002056
:2041000008BDFFF7BBFFC0B208BD00BF42F2034310B584B0002402A801A902940394ADF877
:20412000083009F0C1FF20B19DF90A30803302D0204604B010BD9DF80C0000F00C00A0F153
:204140000400B0FA80F0400904B010BD70B582B009F0A2FF88B3234C6388022B03D02CE0E5
:20416000FFF7D4FF18B109F097FF0028F8D101A91D4809F099FFFFF7F3F800F1400507E08F
:204180006388022B08D1FFF7EBF8401B002803DA09F082FF0028F3D142F202426388934257
:2041A0001AD042F207401C1AB4FA84F40F4D6409EB792BB9204602B070BD012002B070BDE8
:2041C000FFF7CEF80A4A0B49D369CE6900219B1B1844D061E971EDE7044D0124EB79002B71
:2041E000E8D0EDE7580A002001000104582C0020242C0020642C00200B2801D0012070470B
:20420000082A01D0022070470029FBD0104B083103F1080011F8012D03F8012F8342F9D14D
:2042200010B509F039FF88B10A4B5B88022B0CD1FFF78CFF01280CBF00240324FFF71EFF3A
:2042400001280CBF2046032010BD002010BD00BF7F0A0020580A002030B585B009F01CFF0F
:2042600018B1104B5B88022B02D0FF2005B030BD4FF0000242F2034563F301028DF80C20B0
:2042800000249DF80C0000F00303022BEED101A902A802940394ADF8085009F005FF0028D4
:2042A000EFD1E2E7580A002070B5044609F0F4FEC8B1184B5B88022B20D107F049FF054632
:2042C00094B9154B154C1E68002116F1804022684FF0000341F10001994208BF90420FD30D
:2042E00026603DB1012070BD0B4A0C4B12681A60002DF7D107F030FF012070BD002070BDA6
:20430000FFF72EF8064A07491368086001331360E6E700BF580A0020043004403C0A00206B
:20432000540A0020C00C002008B50AF093F9012814D009F0B1FE88B1094B5B88022B0DD1A0
:2043400009F0AAFE30B9FFF787FFFF2806D0C0F3801008BDFFF7DAFE0028F4D0002008BDB3
:20436000580A002038B502E0FFF7D0FE18B109F093FE0028F8D1184CFFF7E8FE09F0CEFFDE
:20438000E379E3B9FFF7A2FD144B002219791448022908BF1A71134B42801A79022A04BF02
:2043A00000221A71104B1A79022A04BF00221A710E4B1A79022A04BF00221A7138BDFEF754
:2043C000CFFF0B4A0B49D369CD6900215B1B1844D061E171D6E700BF582C0020A00B002093
:2043E000580A0020300C0020540D0020C40C0020242C0020642C002008B50AF02BF901284A
:2044000001D0FFF7AFFF012008BD00BFF8B50AF021F9012830D0FFF727FD09F03DFE38BB57
:204420001E4A1F481F49204B92F805E047794E795D79012464F3830E64F3830764F3830640
:2044400064F38305882482F805E0106047710160C480D480CC804E710B601A60DC805D7137
:20446000FFF71AFD09F0F2FF012807D00020F8BD0E4B5B88022BD3D10120F8BD0C4B1878A6
:20448000003018BF012009F0FBFFFFF759FD0128ECD1BDE8F840FFF7F1BD00BFA00B0020C4
:2044A000300C0020540D0020C40C0020580A0020FC2B002070B584B0072800F2A680DFE8FF
:2044C00000F01D5F242D305A6604514C217709F0E3FD00B36388022B1DD1FFF737FE012810
:2044E00014BF0324002409F0BFFF012873D0FFF7C5FD01286DD0032004B070BD012978D0E7
:2045000000296CD0022004B070BD414C618609F0C3FD0028DED1002004B070BD3C4C2186FF
:20452000D5E731F00702EDD1394C3A48237EC1F3400561F30003DBB243F00203067865F344
:204540008203657EC1F3800103F0870362F3C71362F3C7158E42657623760170B7D12E4B2B
:20456000228B184603A95A8009F09EFD002814BF00200320C0E731F00103C3D1C8B2BBE75C
:20458000234CC9B2A37B8B42C5D0A1739FE701F115031A2BB6D8214A6FF014030C2401E048
:2045A00052F8343099422ADD14F1FF34F8D209F073FD0028A0D0194B102203EBC404A388F1
:2045C00002A903A8ADF80E30ADF80C2009F06CFDA1E7204690E70020FFF766FE87E7019190
:2045E0000AF038F8012896D0FFF7BCFE0199084682E7FFF70BFF01287FF47DAF8BE7074B75
:20460000074A03EBC4031360D1E7012074E700BF580A0020FC2B0020400A0020E01001000A
:20462000C404002081B1F0B50C4685B0102800F29C80DFE800F087827D78615E9458282244
:204640001D9A9A1915100B000220704705230B60002005B0F0BD6FF014030B600020F8E7F2
:204660001A230B600020F4E70B230B600020F0E7494B00201B780B60EBE7484B00201B783D
:204680005BB20B60E5E709F007FD00286FD0444B5B88022B08BF002769D14FF00003022245
:2046A000002562F38303039502958DF80C3042F2034609E001A902A802950395ADF8086014
:2046C00009F0F2FC002858D09DF80C3003F00C03082BEFD0002F58D19DF90A302360803380
:2046E000C4D10320B5E72E4B002093F91C300B60AFE700200860ACE70023294A0B60137E47
:2047000003F001030B60127E520744BF43F002030B60244B1B78002BA8D00B68002043F03D
:2047200004030B6095E71E4B00201B8E0B6090E71B4B00205B8E0B608BE7194B00209B7B91
:204740000B6086E709F0A8FC30B1154B5888A0F10200B0FA80F040092060002079E7124B70
:2047600000201B681B680B6073E7012071E7FFF74DFE012805D107468FE780238DF80A3070
:204780001FB96FF07F032360ABE709F063FF0128A2D0FFF7E7FD9FE7FB2B0020FA2B00206A
:2047A000580A0020FC2B0020C40400202DE9F04389B0054609F070FC00286BD0584B5B882D
:2047C000022B08BF002665D1FEF7CAFD6FF01F04241A07E0FFF79AFC012879D1FEF7C0FD75
:2047E000C44277D509F058FC0028F3D142F6014202A81821EDB209F0A3FE8DF81750494B17
:20480000494D00240693297804949DF81430091B64F3030318BF012101208DF8143009F0D6
:2048200069FE02A801A909F03FFC404F002839D0FB79002B67D1DFF8FC80FEF791FD0123F8
:20484000C8F81800BB712A7801E0002A51D0BDF80A3003F44063002BF7D0BDF80A00BB7918
:2048600080B2B0F5105418BF0124DFF8C0900BBBFEF776FD2A78C8F81C00101C4FF00103BF
:2048800018BF0120FB7109F049FE56BB204609B0BDE8F083FFF7BAFD012820D0012009B08C
:2048A000BDE8F083BB79DFF88C800124DFF87C90002BDDD0FEF754FD1D49D8F818208B6941
:2048C0004FF0000E9B1A1844886189F806E0CFE700288BD086B9022009B0BDE8F083064673
:2048E00072E709F0B7FE0128D0D0FFF73BFD2046D5E7FFF757F8A6E709F0ACFE0128EAD040
:20490000FFF730FDE7E7FEF72BFDDFF828800849D8F81C20CB69FC719B1A1844C8618CE75F
:20492000580A0020DA0A0020FC2B0020582C0020242C0020642C002010B50C46B32998BF9C
:204940002246014688BFB42203480BF0EDFD2046BDE81040FFF72ABFDA0A002010B509F05F
:2049600079FE012824D009F097FBB0B11B4B5B88022B03D011E0FFF7C9FB18B109F08CFB7A
:204980000028F8D1FFF768FCFF2811D000F0030010F1FF3018BF012010BDFFF737FD012889
:2049A000044607D009F056FE012801D0FFF7DAFC012010BDFFF750FCFF2805D000F00300A4
:2049C00010F1FF3418BF012409F044FE012803D0FFF7C8FC204610BD204610BD580A0020CE
:2049E0002DE9F043584D83B080460F462E68FEF7B7FC564C241A03E0FEF7B2FCC44208D5F4
:204A00003379022BF8D0032B06D0002003B0BDE8F0833379032BF8D12E684B4A337A032B5D
:204A200007D996F808905FFA89F9A9F10804BC4207DD3368002013603071307203B0BDE844
:204A4000F083404606F1090122460BF06DFD09F10303F35CDFF814815BB288F8003009F11D
:204A6000040309F10509F35C56F80900384F03F03F0301903B70019E09F00EFB00284BD0A5
:204A8000344B5B88022B08BF4FF0000944D109F003FB48B12F4B5B88022B05D10020FFF7FD
:204AA00003FCB9F1000F48D12B4BB6F1404FD3F800900BD9FEF754FC284B1B68C3F17E438A
:204AC00003F57203C34248BF09F1FF396FF4BF708019234E4FF0FF31366841F1000100222D
:204AE000801B61EBE671121849EB0103190241EA12611002002343F609520BF021FB194B19
:204B0000194A1B78106063B12B6800221968204629601A721A7179E7FFF778FC4FF00109CC
:204B2000B5E798F80010042049B289B208F022FD3978032008F01EFDE6E709F08BFD01286A
:204B4000B2D0FFF70FFCAFE7500A0020FAFEFFFFFB2B0020580A0020540A0020C00C00209A
:204B6000D02A0020FC2B0020E40D0020FA2B002010B509F091FA80B1144B5B88022B0CD1B8
:204B80000020FFF791FB0446BCB9BDE8104000230F4A80210F4800F067BFFFF737FC0128E3
:204BA000F3D10020FFF780FB044609F053FD0128EAD0FFF7D7FB002CE7D0BDE81040002367
:204BC000034A4FF48731034800F04EBF580A0020714B00001C0A0020F8B5334F3348FFF721
:204BE00089F809F011FC3846902200210BF076FD902200212E480BF071FD902200212D4875
:204C00002D4C0BF06BFD902200212C480BF066FD2B4E2C4B00252946802220461F60376071
:204C200075600BF05BFD42F6010E42F20200072202236376227624490B22244B278B2661CE
:204C4000A273B9266F22E6736161E276FF210122A626A4F800E026775F801971A1766273DF
:204C600084F837201880FFF7D1FB012802D02C462046F8BD0446FEF773FB154A154BD061E2
:204C80001548DC7109F06AFC2046FFF70DFB2B46124A4FF48731124800F0E6FE29461148E9
:204CA00001F008F92046F8BDA00B0020C8040020300C0020540D0020580A0020C40C0020E1
:204CC000480A0020500A0020900B0020400A0020642C0020582C002080110100714B000021
:204CE0001C0A00206406002008B500F08BF880B208BD00BF00F02CB938B50C4D04202B682C
:204D00005B6998472B6804205B6B984701280446064BF7D11B6840F20140DB699847044BA0
:204D2000044A1C6013689B07FCD538BDB80100102820086028200840034B1B68002B14BFEE
:204D400001200220704700BFE80D0020F8B503880446002B2ED0B3F5847F05D1184B1B7863
:204D60008B4205D00120F8BD002303800320F8BD144D2B6873B1144B144A1B6812685B68A8
:204D80000220174698470026301847F100012B6898472E600E4B40F201401B689B6A9847DB
:204DA0000C4B01210C4A196013689B07FCD50B48FEF7A6FF4FF4847323800120F8BD00BF5E
:204DC000E8070020E80D0020CC01001004800240B8010010282008602820084008050020D6
:204DE00008B5064B04201B685B6B9847012803BF034B1868C0F34000002008BDB8010010FF
:204E00003C20084070B5274B1B689BB1264C0023224612F8011B29B90133042BF9D1002036
:204E2000014670BD214A002502EBC302E55492E8030070BDFFF7D4FF00282FD01C4A1D4B1B
:204E40001268134073B91C4A0121134611601A68002AFCD110464FF4807107F03DFF174B6F
:204E600001221A6007F074F90646114A1368DB07FCD5134B134A1B6814685B6802209847DE
:204E800023460022141843F1000516B12046294670BD07F061F92046294670BDFFF72CFFE5
:204EA000CCE700BFE80D0020EC0D0020F80700200880024001000080F09F0240A8025042DB
:204EC000CC010010048002402DE9F041FEF748FA174D184E0024184A0127AF70346013680B
:204EE0001649DFF86880096823F00103C8F8080013604B6931209847224620464FF48071EB
:204F000007F0EAFE0E4B3760197822460D4801F073F8AB784BB1FEF723FA0B4AD8F80810AA
:204F20009368AC705B1A18449060BDE8F08100BF582C0020A80250420C800240B001001055
:204F4000E80700201C050020242C0020642C002010B5074C2378802B00D010BD00F0A2FF55
:204F6000207000210348BDE8104000F0A3BF00BFE80700201C0500200AB90020704708B588
:204F800008461146FEF744FB002008BD0FB400B583B004AB53F8041B04481A46019300F05F
:204FA00025F803B05DF804EB04B070472C050020102970B50C46054602D80AE0102C0BD942
:204FC0002B681022084968689847103C0028F5D070BD08460029FBD022462B68686802494E
:204FE000BDE87040184700BFA41101002DE9F04F834688468FB001924FF0000998F80030C2
:20500000002B00F0E380252B08BF45461DD0444603E0252B00F045812C466378651C002B17
:20502000F7D1454500F0D280C8EB050641463246DBF80030DBF804009847002840F03D824F
:205040006378B144002B00F0C1806B7805F10108002B00F0BB800025A3F12002102A1BD8E4
:20506000DFE802F0171A1A141A1A1A1A1A1A1A111A0E1A1A090045F0100518F8013FEBE780
:2050800045F00105F9E745F00605F6E745F00805F3E745F00205F0E7A3F13102082A00F2BE
:2050A000D580002404EB840403EB440418F8013F303CA3F13002092AF4D92E2B00F0CE80B1
:2050C0004FF0FF366C2B00F0E280682B00F04481782B00F28180DFE813F079007F007F0054
:2050E0007F007F007F007F007F007F007F007F007F007F007F007F007F007F007F007F00C0
:205100007F007F007F007F007F007F007F007F007F007F007F007F007F007F007F007F009F
:205120007F007F00E2027F007F007F007F007F007F007F007F007F007F007F007F007F001A
:205140007F007F007F007F007F007F007F007F007F007F007F007F007F007F00DF027F00FD
:205160007F007F00DC02D902D6027F007F007F007F007F007F007F007F007F007F007F002B
:205180007F007F007F007F007F00D3027F007F007F007F007F007F007F007F00D0027F0076
:2051A000CD02CA02C702C402C1027F00CA027F007F007F007F00BE02BB027D007F007F00C3
:2051C000B8027F00B5027F007F00B20248460FB0BDE8F08F45F4407505F4E063B3F5806FFB
:2051E00008F1010800F06E815FD9B3F5C06F00F0A181B3F5E06F00F09681B3F5A06F7FF485
:20520000FDAE019A012C136888BF04F1FF3402F104028DF8203098BF0024EB07019200F172
:20522000F38121465846FFF7C3FE002840F045810122DBF8003008A9DBF8040009EB020577
:205240009847002840F03981254497E12A2B00F08D802E2B4FF000047FF432AF98F8013079
:2052600008F10101A3F13002092A00F28D808846002606EB860603EB460618F8013F303ED2
:20528000A3F13002092AF4D96C2B7FF41EAF98F801306C2B00F05A8108F1010845F06005B2
:2052A00016E745457FF4C0AECFE6B3F5807F70D0B3F5407F7FF4A2AE0198B24B15F4804F52
:2052C000B14F18BF1F4603460168043301930A460023002900F0AB810DF1330E704611094E
:2052E00041EA03714FEA131C02F00F0663460A46B95D00F8011D52EA0301F0D1BEEB0006CB
:2053000000F097810336B4424FF078034FF0300200F8013C00F8022C4FF023038CBFA41B61
:205320000024EA0700F8033CA0F1030700F1BA8121465846FFF73CFE002840F0BE80394610
:20534000DBF800303246DBF804009847002840F0B48009EB060511E198F80130682B00F05B
:20536000B58108F1010845F04005B1E6019A08F10108134614680433002C0193B8BF45F0CF
:20538000010598F8003098E62A2B00F0A681884696E6002EABBF25F01005012305960593FA
:2053A00015F40053049305F0E00300F0F580402B00F0A88200F29B81002B00F06182202BE1
:2053C00040F08A82019991F900200431D3170191002A73F10001C0F25F82CDE9022300237C
:2053E000069305F4C053B3F5805F00F0F080B3F5C05F00F0CC81B3F5006F00F0ED810DF1AA
:20540000360A002741F60803059941F208028F4203EA050380F08E819342A1EB070600F065
:20542000518241F60802934207EB060100F08D8100231A460293049B83B1069B002B40F0A5
:20544000928105F00603022B00F053824F48062B08BF0246029B08BF01230293029B0B4469
:205460009C428CBFE41A002415F00103049304D1E80640F11D8226441C46029838B1114608
:20548000DBF800300246DBF804009847A8B9102E07EB090540F2C381B14603E0B9F1100F53
:2054A00040F2BF81DBF8003010223949DBF804009847A9F110090028F0D04FF0FF300FB045
:2054C000BDE8F08F019A1346D2F800A004330193BAF1000F00F0E8819AF8007037B15746E5
:2054E00017F8013F002BFBD1CAEB0707002E02DBB74228BF3746BC428CBFE41B0024E907DF
:205500002BD421465846FFF753FD0028D5D15146DBF800303A46DBF8040098470028CCD1DE
:2055200007EB09052AE0019A136804320192C3F8009063E5DBF8003001221649DBF8040093
:2055400098470028B9D109F1010957E598F8023045F0800508F10208BAE55146DBF80030C2
:205560003A46DBF8040098470028A6D12146584607EB0905FFF71CFD00289ED104EB0509AE
:205580003CE500BFC4110100D8110100F8110100B411010004120100402B00F0AE8100F208
:2055A000B680002B00F06181202B40F0E080049A019906920A780023CDE902230B46043305
:2055C000019305F4C053B3F5805F7FF410AFDDE90223134300F09D810DF1360307939A4672
:2055E000DDE90223D00840EA4370DE0802F007013346024630310AF8011D52EA0301F1D1E7
:20560000079BCAEB0307FDE6DBF80030012208A9DBF80400984700287FF44FAF214658461B
:2056200009F10105FFF7C4FC0028A7D045E70DF13300302300F8013C0426013863E645F44B
:20564000C855C9E545F41065C6E545F48065C3E545F48855C0E545F4E065BDE545F4813596
:20566000BAE545F40075B7E545F40245B4E545F42455B1E545F4A065AEE545F4C135ABE550
:2056800045F4B245A8E545F4A135A5E545F48445A2E545F442459FE545F4E1359CE545F4DE
:2056A000C06599E53946DBF800303246DBF80400984700287FF401AF2146584609EB060548
:2056C000FFF776FC00283FF459AFF6E698F8023045F0200508F10208FAE4019998F80230CA
:2056E0000A4604320E68019208F10208EAE4602B00F0C680802B40F0EF80019B073323F056
:20570000070303F108020192D3E9002360E6602B00F0AB80802B2AD1049B0693019B07336F
:2057200023F0070303F108020192D3E90023CDE9022356E6934200F0CD8041F6080200264C
:20574000934207EB06017FF473AEDDE9022313433FF46EAE744B15F4804F744A18BF1A46CB
:205760000223029367E601230293714A76E605F4C053B3F5805F00F0D080B3F5C05F40F088
:20578000AE8000230022CDE9022300230693694B15F4804FDDE90201674E024618BF1E4672
:2057A0000B46134300F0B5800DF1360307939A4602460B46110941EA03711F0902F00F00F1
:2057C0003B460A46315C0AF8011D52EA0301F1D1079BCAEB030715E6DDE9026732463B46C5
:2057E000134300F096800DF136039A460793304639460A2200230AF0A3FC30323046394668
:205800000AF8012D00230A220AF09AFC06460F4656EA0703EBD1079BCAEB0307F2E556B193
:20582000B1464A46DBF800304449DBF80400984700287FF442AE3A46029F51462F44DBF812
:205840000030DBF804003D46984700287FF435AE049B3544002B3FF491AE21465846FFF7B1
:20586000A7FB00283FF48AAE27E6019A136804321946049B01920022CDE902120693B0E5EF
:2058800001990B460A6804330193002A4FEAE27373F10001BFF6A1AD524263EB4303CDE9E2
:2058A0000223012306939CE5DFF898A006271DE6214658460592FFF77BFB059A00283FF444
:2058C000DCADFAE5002E08BF0126002302931A46B919B0E50126F8E7002200237DE50023F5
:2058E00006931F4600220023CDE902230DF1360A88E50123124A0293B0E5049A0199069265
:205900000A8858E60199B1F900200431D31701915EE500270DF1360A74E500230022CDE9A6
:2059200002230023069352E6EC110100F0110100F4110100C4110100D8110100B4110100C2
:2059400084170100FC11010010B50446006830B1002100F0AFFA54F8040F0028F8D110BD6E
:20596000F0B5038883B005465BB14A2B04D188291BD0012003B0F0BD00230380032003B08A
:20598000F0BD194800F012FC044630B1A168201D00F09EF92468002CF8D1144B01221A7076
:2059A0004A2301202B8003B0F0BD0F48019200F0FDFB04460028F3D0019A031D9A4205D0DB
:2059C0002468231D002CEBD09A42F9D12146064800F040FC064E6269A369376832600BB175
:2059E000E06998473760DBE7F00D0020FD2B0020FC0D002010B5064B002406481C7000F094
:205A0000D1FB2146BDE81040034800F053BA00BFFD2B0020F00D00203405002070B504462A
:205A20000D48049D0078A261E361656130B9A1600A482146BDE8704000F0BABB084D094BE5
:205A40002E68201D2B6000F043F92E602146BDE87040024800F0ACBBFD2B0020F00D00206C
:205A6000FC0D00203405002010B5044C82B024680094FFF7D3FF02B010BD00BFFC0D00200E
:205A800070B5094B04461B783BB1084D084B2E6804302B6000F026F92E602146BDE870406E
:205AA000044800F085BB00BFFD2B0020FC0D002034050020F00D002010B50A4B04461B78CD
:205AC0003BB9C36003612146BDE81040064800F0C1BB043000F032F92146BDE81040024840
:205AE00000F0B8BBFD2B0020F00D0020084B0948094910B4002203F1300443F8042BA3428B
:205B000040F8042B01F8012BF7D110BC704700BF642C0020242C0020582C002038B50B4BE8
:205B20001B5C1BB90A4B53F8200038BD0446FDF717FC074A074952F8243051F8245041F8DF
:205B400024005B1B184442F8240038BD582C0020242C0020642C0020014B43F820107047CA
:205B6000242C002010B50E4C2368B3B1FDF76CFB226892E80A0092680B44191A4AB114684B
:205B80005368926823441B1A994228BF1946002AF5D1044B0144196010BD024A136010BD3D
:205BA000F40D0020F80D00202DE9F041038805467BB1592B08D1872912D0822920D0592350
:205BC0002B800120BDE8F081002303800320BDE8F081254A0120136059232B80BDE8F081C4
:205BE000214F39680029EAD0CB689A4203D024E0CB689A4220D189680029F9D13960DEE789
:205C0000194F4FF000083C68002CD8D0002604E0A3682646002BD2D01C46204600F04EFA0F
:205C20000028F5D022468821E06800F0E5F978B10E4800F00DFAEBE739608B68002BBED0C3
:205C4000D86882420BBF9B6819468B609B68F5E7E060A3682EB1B360C4F80880FFF782FF52
:205C6000D1E73B60F8E700BFF40D00204405002010B50446104800F0EBF91049E3680A6858
:205C80004BB142B194420FD0134601E09C420BD09B68002BFAD10A4BA2601B680C60E360EB
:205CA000BDE81040FFF75EBF054B1B68E360BDE81040FFF757BF00BF44050020F40D00207C
:205CC000FC0D0020014800F0C3B900BF4405002010B5044600F0DEF92046BDE81040FFF797
:205CE000C7BF00BF10B5044600F0DCF92046BDE81040FFF7BDBF00BF10B5044600F0D8F92F
:205D00002046BDE81040FFF7B3BF00BFC068B0FA80F04009704700BF024B1868003018BF2C
:205D200001207047F40D0020024B186808B1024B18687047F40D0020F80D002010B50F4BFB
:205D400004461A68824213D072B19368984208BF134605D043B19A68944201D01346F9E70D
:205D6000A2689A60FFF7FEFE0023A360E36010BD82681A60FFF7F6FEF6E700BFF40D0020EC
:205D80002DE9F843DFF8A480274DD8F800702E68874247D077B33B4601E0002B3BD01B6848
:205DA0009842FAD133B3837B8946044623B3002383736FB1BC424FF0870106D0BB7BDB077F
:205DC00003D52246384600F033F83F68002FF1D1A3683BB14C4505D02C600022832104F1AE
:205DE0000C009847D8F80000844208D12368C8F800302E60BDE8F88338468442F6D00028EE
:205E0000F7D003689C4208D0002BF2D01A68944204D01346F8E7BDE8F883034622681A60DC
:205E20002E60E7E73B46BDE7FC0D0020000E002070B586687EB104460A4802230460A3730D
:205E400004F10C000D46B0470238012804D9832D02D00123A37370BD21462046BDE87040AC
:205E6000FFF78EBFFC0D002070B50C4A0C4B146800251D7084B1012601E0246864B1E37B7A
:205E8000002BFAD0A673E573204600228221FFF7CFFF2468002CF2D170BD00BF000E002018
:205EA000002C0020024B1878421C1A70704700BF012C002070B50F4D2C68844206D034B178
:205EC000234600E01BB11B689842FBD170BD0028FCD00346084E04600A4634680120002132
:205EE00098739981184681212B60FFF7A1FF346070BD00BF000E0020FC0D0020014B1968B8
:205F0000FFF73EBFFC0D002070B407480749084A0023084D084C8A2603700B6013602E70E5
:205F2000237070BC704700BFFF2B0020000E0020FC0D0020012C0020FE2B00202DE9F041AE
:205F4000234D2B780BB1FFF78FFF224E3378BBB12148224F0278013B02EB420189000132EB
:205F60007C1802F01F020270A068DBB233707F5CD4F8048098B1812F06D0827BD20705D427
:205F800028781844BDE8F0810123837342463946FFF74EFF337828781844BDE8F081104A74
:205FA000146834B9ECE7A37BD9070AD42468002CF0D02B78002BF6D0FFF756FFA37BD90774
:205FC000F4D5424639462046FFF732FFEEE700BF002C0020FF2B0020FE2B0020040E0020BF
:205FE000000E0020024A034B10781B7818447047FF2B0020002C0020F0B40C4D2C78202C28
:2060000011D00B4B0B4E1B78671C234403F01F0303EB43039B00F418A06062602F70F154DD
:206020000020F0BC70470120F0BC7047FF2B0020FE2B0020040E002038B5837B034CDB0778
:20604000256801D5FFF7F4FE256038BDFC0D002038B1837B013B012B03D8024A0123137035
:20606000C3737047002C0020FDF774B910B5084C206858B10022436881682260984723687A
:2060800023B1BDE810401868FDF766B910BD00BF840F002010B541600446FDF7D5F8206074
:2060A00010BD00BF90E80C0013440360704700BF10B50446FDF7C8F8206010BD10B5044681
:2060C000FDF7C2F823686268C3F101031844904294BF0020012010BDF8B504880546672C5F
:2060E0000BD0792C04D0CCB1002303800320F8BD85291AD11D4C002323601C4C264604E0F1
:206100000A2814D023687E2B2ADD194800F0D4F8431CF5D167232B800120F8BDFFF7C2FE2B
:20612000144A124B10701C60E7E70120F8BD0F4C114F23680F4A581C0026117820603A4642
:206140003046FE54FFF758FF0C4B324618688521FFF752FF0028CED179232B800120F8BD0A
:2061600005495A1CC8543260CFE700BF9010002088100020B735002008100020FC0D002053
:2061800008B505490548802200F08EF8BDE8084000210348FFF78EBE880F00208810002085
:2061A0005405002000230360704700BF0068704710B404685CB1A14223D023680BB906E003
:2061C000134699420FD01A681C46002AF8D100230B6002680AB910E01A461368002BFBD158
:2061E000116010BC70475CB10A68226000221A6000230B600268002AEFD1016010BC704748
:206200000C46226823460260F0E700BF30B4056865B1A94219D02B682C460BB906E01346FE
:20622000994207D01A681C46002AF8D10D60016030BC704744B10A68226000221A60056872
:206240000D60016030BC70470D462A682B460260F3E700BF10B404685CB18C4212D0236804
:206260000BB906E01346994205D01A681C46002AF8D110BC70472CB11A68226000221A6094
:2062800010BC70470A680B460260F7E703682BB100201B680130002BFBD17047184670479A
:2062A00000B10068704700BF0023013A0160027143718371704700BF0346807959791A7958
:2062C000091A114207D010B4411C1C680A40205C9A7110BC70474FF0FF30704708B5064848
:2062E00005F06AFB054B00220120FD21187099705A70DA7008BD00BF29700000141200208B
:2063000030B414780B7A84F00204A34215D00B891BB94B89B3F57F4F30D01F4D01222C686F
:2063200001F10803824004F10801296003CBD3B220606160184630BC70474C7A53789C4213
:20634000E5D18C7A93789C42E1D1CC7AD3789C42DDD10C7B13799C42D9D14C7B53799C42BD
:20636000D5D18C7B93799C42D1D1D379CA7B9A42CDD1032101FA00F3DBB2DBE78B89FE2B3B
:20638000CBD1054CCB892268022122F8023B01FA00F32260DBB2CDE79C10002010B5124C18
:2063A0000220A17907F0E6F8A379112B09D0062B07D03A2B0FD0BDE810400021012007F021
:2063C000D9B8218D638D01209942A8BF1946BDE8104007F0CFB8218D012049BA89B2BDE8A7
:2063E000104007F0C7B800BF102E002010B5084C2378012B01D0002010BD01460822A01CEF
:206400000AF060F800280CBF2046002010BD00BF1412002008B50146102007F0B9F8044BB4
:2064200000219B6803489847BDE80840FDF7C2B80C1F01003964000010B50C461146204616
:2064400001F0BCFA044B1B6813B19B6820469847024B1C6010BD00BF741700202412002061
:206460002DE9F041174D00232A469478713234B101330C2BF9D14FF0FF30BDE8F081C3EBE3
:20648000C30403EB04142E197170074606F0CCFFDFF83C800C4A98F800301168C01A2F5579
:2064A000B070CC1806F0C0FF98F800202146821AF01C0AF039F8B1780448FEF767FDB07843
:2064C000BDE8F081281200202012002054120100032C00202DE9F84F074615465ABB88465C
:2064E0009146624E4FF0FF3436F8063CC3BB631C4DD00135022D06F1B806F5D1621C00F0CB
:20650000AE80B82505FB04F5DFF874910F2009EB0506A6F81280378207F046F80146304692
:2065200006F0B4FC05F1180048444021FFF7B2FD2046BDE8F88FDFF8488100244646328A77
:20654000BA4226D00134022C06F1B806F7D12A4639464748FEF71AFD4FF0FF30BDE8F88F45
:206560003046FFF7ABFD002831D0424B26F8069C03F24C51E8B29A7822B11A78824208BF63
:2065800083F8029071338B42F5D1631CB1D16CB2AFE7738A002BD5D00F2007F005F80146CB
:2065A000304606F079FC0028CCD0E6B229463046FFF756FF011E11DB002945DDB82303FB3F
:2065C00004839A8A60B20A449A82BDE8F88F611C8FD136F8063C002B8BD1D8E74FF0000B8B
:2065E0005F46D946DFF884A03AF8063CF3B1BC421CD05046FFF762FDC0B15FFA87FEB823C5
:2066000003FB0E831B4AA3F8129002F24C504FF0000C937833B11378734504BF82F802906D
:206620000CF1010C71329042F3D1E3440137022F0AF1B80AD8D1BBF1000F05D029463046AC
:20664000FFF70EFF0146B7E7B82303FB04840A48218AFEF79BFC4FF0FF30BDE8F88F39464F
:206660000648FEF793FC2046BDE8F88FB8100020E01201002812002098120100641201005F
:20668000A01000202DE9F84F15090F2D064689469A4602F00F0436D00F2C45D02246294646
:2066A0003248A046AB466719FEF770FC002D47D10F2F09DD8CB90DBB304605F07FFBBDE8A8
:2066C000F84F0A20FCF784BFC7F1100206EB0B0000210AF003F8002CEDD0DFF89490C8F19A
:2066E0001000D9F8007030443946224609F01CFF022C27D03C44C9F80040DDE75146304663
:2067000001F05AFED8E70F2C23D0224610211748FEF73CFC102293461546A046A718494684
:20672000304609F001FFC3E7102229460F484FF01008AF18AB46FEF729FC4446002DCCD0CC
:206740002A46ECE70A2DD5D8FF22FE23F2723373D0E7102293465D4611460448FEF716FCB7
:20676000D8465C4620272A46D9E700BF301301009C1000202DE9F04F0F208DB0DFF8C48235
:206780009E4D06F011FF4FF0000A06F03DFB88F800A085F800A006F033FE994E3060042092
:2067A00006F0F0FE32689749137800B203F0F803C02B086000F0D380E02B40F08D80924898
:2067C000FEF7E4FB336891485A781C78D9789F7893F8049042EA042441EA0727C4F30A0412
:2067E0003A4621464B46FEF7D1FB2B7805332B7006F01AFE29782246411A8548FEF7C6FBF5
:2068000038464A462146FFF765FE0746013060D0804AB82303FB0723D346CDF810A0B3F8F6
:2068200014A00123A24534BF4FF0000A4FF0010A059306F0F9FD2B78704D834200F2B88040
:2068400006F0F2FD297898F800504FEAC903C1EB0008EA1870484244B2F57A7FC0F8008001
:2068600000F25681BBF1000F06D033680BEB05001944424609F058FE002C40F0A580059BD3
:20688000002B00F0B480BAF1000F22D0634E2146634B1C806348FEF779FB71796248FEF7FE
:2068A00075FB0024315D6148FEF770FB73790134A4B22733A342F5DA5D4C0A20FCF788FEDC
:2068C000236823B1FFF76AFD23685B68984705F099F80DB0BDE8F08F57465446DFF83CB16D
:2068E000CDF810A02B78DFF81491D15C01F0E003602B00F0A980412960D14E48FCF770FECD
:206900005A4699F8001030684B1CDBB2034403F12000D3F800A0D3F80490D3F808C0D3F827
